{
  "_format": "hh-sol-artifact-1",
  "contractName": "SuperHero",
  "sourceName": "contracts/SuperHero.sol",
  "abi": [
    {
      "inputs": [],
      "stateMutability": "nonpayable",
      "type": "constructor"
    },
    {
      "anonymous": false,
      "inputs": [
        {
          "indexed": true,
          "internalType": "address",
          "name": "owner",
          "type": "address"
        },
        {
          "indexed": true,
          "internalType": "address",
          "name": "approved",
          "type": "address"
        },
        {
          "indexed": true,
          "internalType": "uint256",
          "name": "tokenId",
          "type": "uint256"
        }
      ],
      "name": "Approval",
      "type": "event"
    },
    {
      "anonymous": false,
      "inputs": [
        {
          "indexed": true,
          "internalType": "address",
          "name": "owner",
          "type": "address"
        },
        {
          "indexed": true,
          "internalType": "address",
          "name": "operator",
          "type": "address"
        },
        {
          "indexed": false,
          "internalType": "bool",
          "name": "approved",
          "type": "bool"
        }
      ],
      "name": "ApprovalForAll",
      "type": "event"
    },
    {
      "anonymous": false,
      "inputs": [
        {
          "indexed": true,
          "internalType": "address",
          "name": "from",
          "type": "address"
        },
        {
          "indexed": true,
          "internalType": "address",
          "name": "to",
          "type": "address"
        },
        {
          "indexed": true,
          "internalType": "uint256",
          "name": "tokenId",
          "type": "uint256"
        }
      ],
      "name": "Transfer",
      "type": "event"
    },
    {
      "inputs": [
        {
          "internalType": "address",
          "name": "to",
          "type": "address"
        },
        {
          "internalType": "uint256",
          "name": "tokenId",
          "type": "uint256"
        }
      ],
      "name": "approve",
      "outputs": [],
      "stateMutability": "nonpayable",
      "type": "function"
    },
    {
      "inputs": [
        {
          "internalType": "address",
          "name": "owner",
          "type": "address"
        }
      ],
      "name": "balanceOf",
      "outputs": [
        {
          "internalType": "uint256",
          "name": "",
          "type": "uint256"
        }
      ],
      "stateMutability": "view",
      "type": "function"
    },
    {
      "inputs": [
        {
          "internalType": "address",
          "name": "newOwner",
          "type": "address"
        },
        {
          "internalType": "string",
          "name": "tokenURI",
          "type": "string"
        }
      ],
      "name": "createHero",
      "outputs": [
        {
          "internalType": "uint256",
          "name": "",
          "type": "uint256"
        }
      ],
      "stateMutability": "nonpayable",
      "type": "function"
    },
    {
      "inputs": [
        {
          "internalType": "uint256",
          "name": "tokenId",
          "type": "uint256"
        }
      ],
      "name": "getApproved",
      "outputs": [
        {
          "internalType": "address",
          "name": "",
          "type": "address"
        }
      ],
      "stateMutability": "view",
      "type": "function"
    },
    {
      "inputs": [
        {
          "internalType": "address",
          "name": "owner",
          "type": "address"
        },
        {
          "internalType": "address",
          "name": "operator",
          "type": "address"
        }
      ],
      "name": "isApprovedForAll",
      "outputs": [
        {
          "internalType": "bool",
          "name": "",
          "type": "bool"
        }
      ],
      "stateMutability": "view",
      "type": "function"
    },
    {
      "inputs": [],
      "name": "name",
      "outputs": [
        {
          "internalType": "string",
          "name": "",
          "type": "string"
        }
      ],
      "stateMutability": "view",
      "type": "function"
    },
    {
      "inputs": [
        {
          "internalType": "uint256",
          "name": "tokenId",
          "type": "uint256"
        }
      ],
      "name": "ownerOf",
      "outputs": [
        {
          "internalType": "address",
          "name": "",
          "type": "address"
        }
      ],
      "stateMutability": "view",
      "type": "function"
    },
    {
      "inputs": [
        {
          "internalType": "address",
          "name": "from",
          "type": "address"
        },
        {
          "internalType": "address",
          "name": "to",
          "type": "address"
        },
        {
          "internalType": "uint256",
          "name": "tokenId",
          "type": "uint256"
        }
      ],
      "name": "safeTransferFrom",
      "outputs": [],
      "stateMutability": "nonpayable",
      "type": "function"
    },
    {
      "inputs": [
        {
          "internalType": "address",
          "name": "from",
          "type": "address"
        },
        {
          "internalType": "address",
          "name": "to",
          "type": "address"
        },
        {
          "internalType": "uint256",
          "name": "tokenId",
          "type": "uint256"
        },
        {
          "internalType": "bytes",
          "name": "_data",
          "type": "bytes"
        }
      ],
      "name": "safeTransferFrom",
      "outputs": [],
      "stateMutability": "nonpayable",
      "type": "function"
    },
    {
      "inputs": [
        {
          "internalType": "address",
          "name": "operator",
          "type": "address"
        },
        {
          "internalType": "bool",
          "name": "approved",
          "type": "bool"
        }
      ],
      "name": "setApprovalForAll",
      "outputs": [],
      "stateMutability": "nonpayable",
      "type": "function"
    },
    {
      "inputs": [
        {
          "internalType": "bytes4",
          "name": "interfaceId",
          "type": "bytes4"
        }
      ],
      "name": "supportsInterface",
      "outputs": [
        {
          "internalType": "bool",
          "name": "",
          "type": "bool"
        }
      ],
      "stateMutability": "view",
      "type": "function"
    },
    {
      "inputs": [],
      "name": "symbol",
      "outputs": [
        {
          "internalType": "string",
          "name": "",
          "type": "string"
        }
      ],
      "stateMutability": "view",
      "type": "function"
    },
    {
      "inputs": [],
      "name": "tokenIds",
      "outputs": [
        {
          "internalType": "uint256",
          "name": "_value",
          "type": "uint256"
        }
      ],
      "stateMutability": "view",
      "type": "function"
    },
    {
      "inputs": [
        {
          "internalType": "uint256",
          "name": "tokenId",
          "type": "uint256"
        }
      ],
      "name": "tokenURI",
      "outputs": [
        {
          "internalType": "string",
          "name": "",
          "type": "string"
        }
      ],
      "stateMutability": "view",
      "type": "function"
    },
    {
      "inputs": [
        {
          "internalType": "address",
          "name": "from",
          "type": "address"
        },
        {
          "internalType": "address",
          "name": "to",
          "type": "address"
        },
        {
          "internalType": "uint256",
          "name": "tokenId",
          "type": "uint256"
        }
      ],
      "name": "transferFrom",
      "outputs": [],
      "stateMutability": "nonpayable",
      "type": "function"
    }
  ],
  "bytecode": "0x60806040523480156200001157600080fd5b506040518060400160405280600981526020017f53757065724865726f00000000000000000000000000000000000000000000008152506040518060400160405280600681526020017f53505248524f0000000000000000000000000000000000000000000000000000815250816000908051906020019062000096929190620000b8565b508060019080519060200190620000af929190620000b8565b505050620001cd565b828054620000c69062000168565b90600052602060002090601f016020900481019282620000ea576000855562000136565b82601f106200010557805160ff191683800117855562000136565b8280016001018555821562000136579182015b828111156200013557825182559160200191906001019062000118565b5b50905062000145919062000149565b5090565b5b80821115620001645760008160009055506001016200014a565b5090565b600060028204905060018216806200018157607f821691505b602082108114156200019857620001976200019e565b5b50919050565b7f4e487b7100000000000000000000000000000000000000000000000000000000600052602260045260246000fd5b612ba080620001dd6000396000f3fe608060405234801561001057600080fd5b50600436106100f55760003560e01c806370a0823111610097578063b88d4fde11610066578063b88d4fde14610284578063c87b56dd146102a0578063db12f3d2146102d0578063e985e9c514610300576100f5565b806370a08231146101fc578063714cff561461022c57806395d89b411461024a578063a22cb46514610268576100f5565b8063095ea7b3116100d3578063095ea7b31461017857806323b872dd1461019457806342842e0e146101b05780636352211e146101cc576100f5565b806301ffc9a7146100fa57806306fdde031461012a578063081812fc14610148575b600080fd5b610114600480360381019061010f9190611c4d565b610330565b6040516101219190612053565b60405180910390f35b610132610412565b60405161013f919061206e565b60405180910390f35b610162600480360381019061015d9190611c9f565b6104a4565b60405161016f9190611fec565b60405180910390f35b610192600480360381019061018d9190611c11565b610529565b005b6101ae60048036038101906101a99190611ab7565b610641565b005b6101ca60048036038101906101c59190611ab7565b6106a1565b005b6101e660048036038101906101e19190611c9f565b6106c1565b6040516101f39190611fec565b60405180910390f35b61021660048036038101906102119190611a52565b610773565b6040516102239190612290565b60405180910390f35b61023461082b565b6040516102419190612290565b60405180910390f35b610252610837565b60405161025f919061206e565b60405180910390f35b610282600480360381019061027d9190611b81565b6108c9565b005b61029e60048036038101906102999190611b06565b610a4a565b005b6102ba60048036038101906102b59190611c9f565b610aac565b6040516102c7919061206e565b60405180910390f35b6102ea60048036038101906102e59190611bbd565b610bfe565b6040516102f79190612290565b60405180910390f35b61031a60048036038101906103159190611a7b565b610c35565b6040516103279190612053565b60405180910390f35b60007f80ac58cd000000000000000000000000000000000000000000000000000000007bffffffffffffffffffffffffffffffffffffffffffffffffffffffff1916827bffffffffffffffffffffffffffffffffffffffffffffffffffffffff191614806103fb57507f5b5e139f000000000000000000000000000000000000000000000000000000007bffffffffffffffffffffffffffffffffffffffffffffffffffffffff1916827bffffffffffffffffffffffffffffffffffffffffffffffffffffffff1916145b8061040b575061040a82610cc9565b5b9050919050565b606060008054610421906124e6565b80601f016020809104026020016040519081016040528092919081815260200182805461044d906124e6565b801561049a5780601f1061046f5761010080835404028352916020019161049a565b820191906000526020600020905b81548152906001019060200180831161047d57829003601f168201915b5050505050905090565b60006104af82610d33565b6104ee576040517f08c379a00000000000000000000000000000000000000000000000000000000081526004016104e5906121f0565b60405180910390fd5b6004600083815260200190815260200160002060009054906101000a900473ffffffffffffffffffffffffffffffffffffffff169050919050565b6000610534826106c1565b90508073ffffffffffffffffffffffffffffffffffffffff168373ffffffffffffffffffffffffffffffffffffffff1614156105a5576040517f08c379a000000000000000000000000000000000000000000000000000000000815260040161059c90612250565b60405180910390fd5b8073ffffffffffffffffffffffffffffffffffffffff166105c4610d9f565b73ffffffffffffffffffffffffffffffffffffffff1614806105f357506105f2816105ed610d9f565b610c35565b5b610632576040517f08c379a000000000000000000000000000000000000000000000000000000000815260040161062990612130565b60405180910390fd5b61063c8383610da7565b505050565b61065261064c610d9f565b82610e60565b610691576040517f08c379a000000000000000000000000000000000000000000000000000000000815260040161068890612270565b60405180910390fd5b61069c838383610f3e565b505050565b6106bc83838360405180602001604052806000815250610a4a565b505050565b6000806002600084815260200190815260200160002060009054906101000a900473ffffffffffffffffffffffffffffffffffffffff169050600073ffffffffffffffffffffffffffffffffffffffff168173ffffffffffffffffffffffffffffffffffffffff16141561076a576040517f08c379a000000000000000000000000000000000000000000000000000000000815260040161076190612170565b60405180910390fd5b80915050919050565b60008073ffffffffffffffffffffffffffffffffffffffff168273ffffffffffffffffffffffffffffffffffffffff1614156107e4576040517f08c379a00000000000000000000000000000000000000000000000000000000081526004016107db90612150565b60405180910390fd5b600360008373ffffffffffffffffffffffffffffffffffffffff1673ffffffffffffffffffffffffffffffffffffffff168152602001908152602001600020549050919050565b60078060000154905081565b606060018054610846906124e6565b80601f0160208091040260200160405190810160405280929190818152602001828054610872906124e6565b80156108bf5780601f10610894576101008083540402835291602001916108bf565b820191906000526020600020905b8154815290600101906020018083116108a257829003601f168201915b5050505050905090565b6108d1610d9f565b73ffffffffffffffffffffffffffffffffffffffff168273ffffffffffffffffffffffffffffffffffffffff16141561093f576040517f08c379a0000000000000000000000000000000000000000000000000000000008152600401610936906120f0565b60405180910390fd5b806005600061094c610d9f565b73ffffffffffffffffffffffffffffffffffffffff1673ffffffffffffffffffffffffffffffffffffffff16815260200190815260200160002060008473ffffffffffffffffffffffffffffffffffffffff1673ffffffffffffffffffffffffffffffffffffffff16815260200190815260200160002060006101000a81548160ff0219169083151502179055508173ffffffffffffffffffffffffffffffffffffffff166109f9610d9f565b73ffffffffffffffffffffffffffffffffffffffff167f17307eab39ab6107e8899845ad3d59bd9653f200f220920489ca2b5937696c3183604051610a3e9190612053565b60405180910390a35050565b610a5b610a55610d9f565b83610e60565b610a9a576040517f08c379a0000000000000000000000000000000000000000000000000000000008152600401610a9190612270565b60405180910390fd5b610aa68484848461119a565b50505050565b6060610ab782610d33565b610af6576040517f08c379a0000000000000000000000000000000000000000000000000000000008152600401610aed906121d0565b60405180910390fd5b6000600660008481526020019081526020016000208054610b16906124e6565b80601f0160208091040260200160405190810160405280929190818152602001828054610b42906124e6565b8015610b8f5780601f10610b6457610100808354040283529160200191610b8f565b820191906000526020600020905b815481529060010190602001808311610b7257829003601f168201915b505050505090506000610ba06111f6565b9050600081511415610bb6578192505050610bf9565b600082511115610beb578082604051602001610bd3929190611fc8565b60405160208183030381529060405292505050610bf9565b610bf48461120d565b925050505b919050565b600080610c0b60076112b4565b9050610c1784826112c2565b610c218184611490565b610c2b6007611504565b8091505092915050565b6000600560008473ffffffffffffffffffffffffffffffffffffffff1673ffffffffffffffffffffffffffffffffffffffff16815260200190815260200160002060008373ffffffffffffffffffffffffffffffffffffffff1673ffffffffffffffffffffffffffffffffffffffff16815260200190815260200160002060009054906101000a900460ff16905092915050565b60007f01ffc9a7000000000000000000000000000000000000000000000000000000007bffffffffffffffffffffffffffffffffffffffffffffffffffffffff1916827bffffffffffffffffffffffffffffffffffffffffffffffffffffffff1916149050919050565b60008073ffffffffffffffffffffffffffffffffffffffff166002600084815260200190815260200160002060009054906101000a900473ffffffffffffffffffffffffffffffffffffffff1673ffffffffffffffffffffffffffffffffffffffff1614159050919050565b600033905090565b816004600083815260200190815260200160002060006101000a81548173ffffffffffffffffffffffffffffffffffffffff021916908373ffffffffffffffffffffffffffffffffffffffff160217905550808273ffffffffffffffffffffffffffffffffffffffff16610e1a836106c1565b73ffffffffffffffffffffffffffffffffffffffff167f8c5be1e5ebec7d5bd14f71427d1e84f3dd0314c0f7b2291e5b200ac8c7c3b92560405160405180910390a45050565b6000610e6b82610d33565b610eaa576040517f08c379a0000000000000000000000000000000000000000000000000000000008152600401610ea190612110565b60405180910390fd5b6000610eb5836106c1565b90508073ffffffffffffffffffffffffffffffffffffffff168473ffffffffffffffffffffffffffffffffffffffff161480610f2457508373ffffffffffffffffffffffffffffffffffffffff16610f0c846104a4565b73ffffffffffffffffffffffffffffffffffffffff16145b80610f355750610f348185610c35565b5b91505092915050565b8273ffffffffffffffffffffffffffffffffffffffff16610f5e826106c1565b73ffffffffffffffffffffffffffffffffffffffff1614610fb4576040517f08c379a0000000000000000000000000000000000000000000000000000000008152600401610fab90612210565b60405180910390fd5b600073ffffffffffffffffffffffffffffffffffffffff168273ffffffffffffffffffffffffffffffffffffffff161415611024576040517f08c379a000000000000000000000000000000000000000000000000000000000815260040161101b906120d0565b60405180910390fd5b61102f83838361151a565b61103a600082610da7565b6001600360008573ffffffffffffffffffffffffffffffffffffffff1673ffffffffffffffffffffffffffffffffffffffff168152602001908152602001600020600082825461108a91906123fc565b925050819055506001600360008473ffffffffffffffffffffffffffffffffffffffff1673ffffffffffffffffffffffffffffffffffffffff16815260200190815260200160002060008282546110e19190612375565b92505081905550816002600083815260200190815260200160002060006101000a81548173ffffffffffffffffffffffffffffffffffffffff021916908373ffffffffffffffffffffffffffffffffffffffff160217905550808273ffffffffffffffffffffffffffffffffffffffff168473ffffffffffffffffffffffffffffffffffffffff167fddf252ad1be2c89b69c2b068fc378daa952ba7f163c4a11628f55a4df523b3ef60405160405180910390a4505050565b6111a5848484610f3e565b6111b18484848461151f565b6111f0576040517f08c379a00000000000000000000000000000000000000000000000000000000081526004016111e790612090565b60405180910390fd5b50505050565b606060405180602001604052806000815250905090565b606061121882610d33565b611257576040517f08c379a000000000000000000000000000000000000000000000000000000000815260040161124e90612230565b60405180910390fd5b60006112616111f6565b9050600081511161128157604051806020016040528060008152506112ac565b8061128b846116b6565b60405160200161129c929190611fc8565b6040516020818303038152906040525b915050919050565b600081600001549050919050565b600073ffffffffffffffffffffffffffffffffffffffff168273ffffffffffffffffffffffffffffffffffffffff161415611332576040517f08c379a0000000000000000000000000000000000000000000000000000000008152600401611329906121b0565b60405180910390fd5b61133b81610d33565b1561137b576040517f08c379a0000000000000000000000000000000000000000000000000000000008152600401611372906120b0565b60405180910390fd5b6113876000838361151a565b6001600360008473ffffffffffffffffffffffffffffffffffffffff1673ffffffffffffffffffffffffffffffffffffffff16815260200190815260200160002060008282546113d79190612375565b92505081905550816002600083815260200190815260200160002060006101000a81548173ffffffffffffffffffffffffffffffffffffffff021916908373ffffffffffffffffffffffffffffffffffffffff160217905550808273ffffffffffffffffffffffffffffffffffffffff16600073ffffffffffffffffffffffffffffffffffffffff167fddf252ad1be2c89b69c2b068fc378daa952ba7f163c4a11628f55a4df523b3ef60405160405180910390a45050565b61149982610d33565b6114d8576040517f08c379a00000000000000000000000000000000000000000000000000000000081526004016114cf90612190565b60405180910390fd5b806006600084815260200190815260200160002090805190602001906114ff929190611876565b505050565b6001816000016000828254019250508190555050565b505050565b60006115408473ffffffffffffffffffffffffffffffffffffffff16611863565b156116a9578373ffffffffffffffffffffffffffffffffffffffff1663150b7a02611569610d9f565b8786866040518563ffffffff1660e01b815260040161158b9493929190612007565b602060405180830381600087803b1580156115a557600080fd5b505af19250505080156115d657506040513d601f19601f820116820180604052508101906115d39190611c76565b60015b611659573d8060008114611606576040519150601f19603f3d011682016040523d82523d6000602084013e61160b565b606091505b50600081511415611651576040517f08c379a000000000000000000000000000000000000000000000000000000000815260040161164890612090565b60405180910390fd5b805181602001fd5b63150b7a0260e01b7bffffffffffffffffffffffffffffffffffffffffffffffffffffffff1916817bffffffffffffffffffffffffffffffffffffffffffffffffffffffff1916149150506116ae565b600190505b949350505050565b606060008214156116fe576040518060400160405280600181526020017f3000000000000000000000000000000000000000000000000000000000000000815250905061185e565b600082905060005b6000821461173057808061171990612549565b915050600a8261172991906123cb565b9150611706565b60008167ffffffffffffffff811115611772577f4e487b7100000000000000000000000000000000000000000000000000000000600052604160045260246000fd5b6040519080825280601f01601f1916602001820160405280156117a45781602001600182028036833780820191505090505b5090505b60008514611857576001826117bd91906123fc565b9150600a856117cc9190612592565b60306117d89190612375565b60f81b818381518110611814577f4e487b7100000000000000000000000000000000000000000000000000000000600052603260045260246000fd5b60200101907effffffffffffffffffffffffffffffffffffffffffffffffffffffffffffff1916908160001a905350600a8561185091906123cb565b94506117a8565b8093505050505b919050565b600080823b905060008111915050919050565b828054611882906124e6565b90600052602060002090601f0160209004810192826118a457600085556118eb565b82601f106118bd57805160ff19168380011785556118eb565b828001600101855582156118eb579182015b828111156118ea5782518255916020019190600101906118cf565b5b5090506118f891906118fc565b5090565b5b808211156119155760008160009055506001016118fd565b5090565b600061192c611927846122d0565b6122ab565b90508281526020810184848401111561194457600080fd5b61194f8482856124a4565b509392505050565b600061196a61196584612301565b6122ab565b90508281526020810184848401111561198257600080fd5b61198d8482856124a4565b509392505050565b6000813590506119a481612b0e565b92915050565b6000813590506119b981612b25565b92915050565b6000813590506119ce81612b3c565b92915050565b6000815190506119e381612b3c565b92915050565b600082601f8301126119fa57600080fd5b8135611a0a848260208601611919565b91505092915050565b600082601f830112611a2457600080fd5b8135611a34848260208601611957565b91505092915050565b600081359050611a4c81612b53565b92915050565b600060208284031215611a6457600080fd5b6000611a7284828501611995565b91505092915050565b60008060408385031215611a8e57600080fd5b6000611a9c85828601611995565b9250506020611aad85828601611995565b9150509250929050565b600080600060608486031215611acc57600080fd5b6000611ada86828701611995565b9350506020611aeb86828701611995565b9250506040611afc86828701611a3d565b9150509250925092565b60008060008060808587031215611b1c57600080fd5b6000611b2a87828801611995565b9450506020611b3b87828801611995565b9350506040611b4c87828801611a3d565b925050606085013567ffffffffffffffff811115611b6957600080fd5b611b75878288016119e9565b91505092959194509250565b60008060408385031215611b9457600080fd5b6000611ba285828601611995565b9250506020611bb3858286016119aa565b9150509250929050565b60008060408385031215611bd057600080fd5b6000611bde85828601611995565b925050602083013567ffffffffffffffff811115611bfb57600080fd5b611c0785828601611a13565b9150509250929050565b60008060408385031215611c2457600080fd5b6000611c3285828601611995565b9250506020611c4385828601611a3d565b9150509250929050565b600060208284031215611c5f57600080fd5b6000611c6d848285016119bf565b91505092915050565b600060208284031215611c8857600080fd5b6000611c96848285016119d4565b91505092915050565b600060208284031215611cb157600080fd5b6000611cbf84828501611a3d565b91505092915050565b611cd181612430565b82525050565b611ce081612442565b82525050565b6000611cf182612332565b611cfb8185612348565b9350611d0b8185602086016124b3565b611d148161267f565b840191505092915050565b6000611d2a8261233d565b611d348185612359565b9350611d448185602086016124b3565b611d4d8161267f565b840191505092915050565b6000611d638261233d565b611d6d818561236a565b9350611d7d8185602086016124b3565b80840191505092915050565b6000611d96603283612359565b9150611da182612690565b604082019050919050565b6000611db9601c83612359565b9150611dc4826126df565b602082019050919050565b6000611ddc602483612359565b9150611de782612708565b604082019050919050565b6000611dff601983612359565b9150611e0a82612757565b602082019050919050565b6000611e22602c83612359565b9150611e2d82612780565b604082019050919050565b6000611e45603883612359565b9150611e50826127cf565b604082019050919050565b6000611e68602a83612359565b9150611e738261281e565b604082019050919050565b6000611e8b602983612359565b9150611e968261286d565b604082019050919050565b6000611eae602e83612359565b9150611eb9826128bc565b604082019050919050565b6000611ed1602083612359565b9150611edc8261290b565b602082019050919050565b6000611ef4603183612359565b9150611eff82612934565b604082019050919050565b6000611f17602c83612359565b9150611f2282612983565b604082019050919050565b6000611f3a602983612359565b9150611f45826129d2565b604082019050919050565b6000611f5d602f83612359565b9150611f6882612a21565b604082019050919050565b6000611f80602183612359565b9150611f8b82612a70565b604082019050919050565b6000611fa3603183612359565b9150611fae82612abf565b604082019050919050565b611fc28161249a565b82525050565b6000611fd48285611d58565b9150611fe08284611d58565b91508190509392505050565b60006020820190506120016000830184611cc8565b92915050565b600060808201905061201c6000830187611cc8565b6120296020830186611cc8565b6120366040830185611fb9565b81810360608301526120488184611ce6565b905095945050505050565b60006020820190506120686000830184611cd7565b92915050565b600060208201905081810360008301526120888184611d1f565b905092915050565b600060208201905081810360008301526120a981611d89565b9050919050565b600060208201905081810360008301526120c981611dac565b9050919050565b600060208201905081810360008301526120e981611dcf565b9050919050565b6000602082019050818103600083015261210981611df2565b9050919050565b6000602082019050818103600083015261212981611e15565b9050919050565b6000602082019050818103600083015261214981611e38565b9050919050565b6000602082019050818103600083015261216981611e5b565b9050919050565b6000602082019050818103600083015261218981611e7e565b9050919050565b600060208201905081810360008301526121a981611ea1565b9050919050565b600060208201905081810360008301526121c981611ec4565b9050919050565b600060208201905081810360008301526121e981611ee7565b9050919050565b6000602082019050818103600083015261220981611f0a565b9050919050565b6000602082019050818103600083015261222981611f2d565b9050919050565b6000602082019050818103600083015261224981611f50565b9050919050565b6000602082019050818103600083015261226981611f73565b9050919050565b6000602082019050818103600083015261228981611f96565b9050919050565b60006020820190506122a56000830184611fb9565b92915050565b60006122b56122c6565b90506122c18282612518565b919050565b6000604051905090565b600067ffffffffffffffff8211156122eb576122ea612650565b5b6122f48261267f565b9050602081019050919050565b600067ffffffffffffffff82111561231c5761231b612650565b5b6123258261267f565b9050602081019050919050565b600081519050919050565b600081519050919050565b600082825260208201905092915050565b600082825260208201905092915050565b600081905092915050565b60006123808261249a565b915061238b8361249a565b9250827fffffffffffffffffffffffffffffffffffffffffffffffffffffffffffffffff038211156123c0576123bf6125c3565b5b828201905092915050565b60006123d68261249a565b91506123e18361249a565b9250826123f1576123f06125f2565b5b828204905092915050565b60006124078261249a565b91506124128361249a565b925082821015612425576124246125c3565b5b828203905092915050565b600061243b8261247a565b9050919050565b60008115159050919050565b60007fffffffff0000000000000000000000000000000000000000000000000000000082169050919050565b600073ffffffffffffffffffffffffffffffffffffffff82169050919050565b6000819050919050565b82818337600083830152505050565b60005b838110156124d15780820151818401526020810190506124b6565b838111156124e0576000848401525b50505050565b600060028204905060018216806124fe57607f821691505b6020821081141561251257612511612621565b5b50919050565b6125218261267f565b810181811067ffffffffffffffff821117156125405761253f612650565b5b80604052505050565b60006125548261249a565b91507fffffffffffffffffffffffffffffffffffffffffffffffffffffffffffffffff821415612587576125866125c3565b5b600182019050919050565b600061259d8261249a565b91506125a88361249a565b9250826125b8576125b76125f2565b5b828206905092915050565b7f4e487b7100000000000000000000000000000000000000000000000000000000600052601160045260246000fd5b7f4e487b7100000000000000000000000000000000000000000000000000000000600052601260045260246000fd5b7f4e487b7100000000000000000000000000000000000000000000000000000000600052602260045260246000fd5b7f4e487b7100000000000000000000000000000000000000000000000000000000600052604160045260246000fd5b6000601f19601f8301169050919050565b7f4552433732313a207472616e7366657220746f206e6f6e20455243373231526560008201527f63656976657220696d706c656d656e7465720000000000000000000000000000602082015250565b7f4552433732313a20746f6b656e20616c7265616479206d696e74656400000000600082015250565b7f4552433732313a207472616e7366657220746f20746865207a65726f2061646460008201527f7265737300000000000000000000000000000000000000000000000000000000602082015250565b7f4552433732313a20617070726f766520746f2063616c6c657200000000000000600082015250565b7f4552433732313a206f70657261746f7220717565727920666f72206e6f6e657860008201527f697374656e7420746f6b656e0000000000000000000000000000000000000000602082015250565b7f4552433732313a20617070726f76652063616c6c6572206973206e6f74206f7760008201527f6e6572206e6f7220617070726f76656420666f7220616c6c0000000000000000602082015250565b7f4552433732313a2062616c616e636520717565727920666f7220746865207a6560008201527f726f206164647265737300000000000000000000000000000000000000000000602082015250565b7f4552433732313a206f776e657220717565727920666f72206e6f6e657869737460008201527f656e7420746f6b656e0000000000000000000000000000000000000000000000602082015250565b7f45524337323155524953746f726167653a2055524920736574206f66206e6f6e60008201527f6578697374656e7420746f6b656e000000000000000000000000000000000000602082015250565b7f4552433732313a206d696e7420746f20746865207a65726f2061646472657373600082015250565b7f45524337323155524953746f726167653a2055524920717565727920666f722060008201527f6e6f6e6578697374656e7420746f6b656e000000000000000000000000000000602082015250565b7f4552433732313a20617070726f76656420717565727920666f72206e6f6e657860008201527f697374656e7420746f6b656e0000000000000000000000000000000000000000602082015250565b7f4552433732313a207472616e73666572206f6620746f6b656e2074686174206960008201527f73206e6f74206f776e0000000000000000000000000000000000000000000000602082015250565b7f4552433732314d657461646174613a2055524920717565727920666f72206e6f60008201527f6e6578697374656e7420746f6b656e0000000000000000000000000000000000602082015250565b7f4552433732313a20617070726f76616c20746f2063757272656e74206f776e6560008201527f7200000000000000000000000000000000000000000000000000000000000000602082015250565b7f4552433732313a207472616e736665722063616c6c6572206973206e6f74206f60008201527f776e6572206e6f7220617070726f766564000000000000000000000000000000602082015250565b612b1781612430565b8114612b2257600080fd5b50565b612b2e81612442565b8114612b3957600080fd5b50565b612b458161244e565b8114612b5057600080fd5b50565b612b5c8161249a565b8114612b6757600080fd5b5056fea2646970667358221220f38e23f5bc4a3657b1900545832cd2f487a2e17e4778cb19ee879846d582790664736f6c63430008040033",
  "linkReferences": {},
  "deployedLinkReferences": {}
}